:020000040000FA
:1000000080C0002001BB00004B480400B9BA0000CA
:10001000B9BA0000B9BA0000B9BA00000000000087
:100020000000000000000000000000009DB3000080
:10003000B9BA00000000000009B30000B9BA00001E
:1000400069B500008369040069B5000069B5000066
:1000500069B5000069B5000069B5000069B5000028
:100060004B69040069B5000069B5000069690400C6
:1000700069B5000069B5000069B5000069B5000008
:1000800069B5000069B5000069B5000069B50000F8
:1000900069B5000069B5000069B5000069B50000E8
:1000A00069B5000069B5000069B5000069B50000D8
:1000B00069B5000069B5000069B5000069B50000C8
:1000C00069B5000069B5000069B5000069B50000B8
:1000D00069B5000069B5000069B5000069B50000A8
:1000E00069B5000069B5000069B5000069B5000098
:1000F00069B5000069B5000069B5000069B5000088
:1001000001F0FF01102A2BDB10F0070F08D010F8C8
:10011000013B013A8B422DD010F0070F42B3F6D1CC
:10012000F0B441EA012141EA014122F007047FF0E5
:1001300000070023F0E80256083C85EA010586EA3C
:10014000010685FA47F5A3FA87F586FA47F6A5FA78
:1001500087F68EB9EED1F0BC01F0FF0102F0070284
:1001600032B110F8013B013A83EA010313B1F8D12F
:100170000020704701387047002D06BF3546033810
:10018000073815F0010F07D1013015F4807F02BF49
:10019000013015F4C03F0130F0BC0138704700BF9A
:1001A00081F0004102E000BF83F0004330B54FEA28
:1001B00041044FEA430594EA050F08BF90EA020F95
:1001C0001FBF54EA000C55EA020C7FEA645C7FEA28
:1001D000655C00F0E2804FEA5454D4EB5555B8BF4B
:1001E0006D420CDD2C4480EA020281EA030382EABC
:1001F000000083EA010180EA020281EA0303362D4E
:1002000088BF30BD11F0004F4FEA01314FF4801C20
:100210004CEA113102D0404261EB410113F0004F32
:100220004FEA03334CEA133302D0524263EB4303E9
:1002300094EA050F00F0A780A4F10104D5F1200E87
:100240000DDB02FA0EFC22FA05F2801841F10001E2
:1002500003FA0EF2801843FA05F359410EE0A5F1B6
:1002600020050EF1200E012A03FA0EFC28BF4CF0E7
:10027000020C43FA05F3C01851EBE37101F000459D
:1002800007D54FF0000EDCF1000C7EEB00006EEBAA
:100290000101B1F5801F1BD3B1F5001F0CD3490834
:1002A0005FEA30004FEA3C0C04F101044FEA44528B
:1002B00012F5800F80F09A80BCF1004F08BF5FEA12
:1002C000500C50F1000041EB045141EA050130BDF2
:1002D0005FEA4C0C404141EB0101013C28BFB1F504
:1002E000801FE9D291F0000F04BF01460020B1FA4F
:1002F00081F308BF2033A3F10B03B3F120020CDA22
:100300000C3208DD02F1140CC2F10C0201FA0CF0FF
:1003100021FA02F10CE002F11402D8BFC2F1200C64
:1003200001FA02F120FA0CFCDCBF41EA0C0190401A
:10033000E41AA2BF01EB0451294330BD6FEA040463
:100340001F3C1CDA0C340EDC04F11404C4F120024E
:1003500020FA04F001FA02F340EA030021FA04F360
:1003600045EA030130BDC4F10C04C4F1200220FAB7
:1003700002F001FA04F340EA0300294630BD21FAF5
:1003800004F0294630BD94F0000F83F4801306BFBB
:1003900081F480110134013D4EE77FEA645C18BFAF
:1003A0007FEA655C29D094EA050F08BF90EA020F46
:1003B00005D054EA000C04BF1946104630BD91EA3E
:1003C000030F1EBF0021002030BD5FEA545C05D141
:1003D0004000494128BF41F0004130BD14F5800480
:1003E0003CBF01F5801130BD01F0004545F0FE41F4
:1003F00041F470014FF0000030BD7FEA645C1ABF29
:10040000194610467FEA655C1CBF0B46024650EA5F
:10041000013406BF52EA033591EA030F41F400218B
:1004200030BD00BF90F0000F04BF0021704730B511
:100430004FF4806404F132044FF000054FF00001E6
:1004400050E700BF90F0000F04BF0021704730B5A7
:100450004FF4806404F1320410F0004548BF40427C
:100460004FF000013EE700BF42004FEAE2014FEAD1
:1004700031014FEA02701FBF12F07F4393F07F4FAC
:1004800081F06051704732F07F4208BF704793F0AF
:100490007F4F04BF41F40021704730B54FF46074C2
:1004A00001F0004521F000411CE700BF50EA0102C5
:1004B00008BF704730B54FF000050AE050EA01026E
:1004C00008BF704730B511F0004502D5404261EBDE
:1004D00041014FF4806404F132045FEA915C3FF41F
:1004E000D8AE4FF003025FEADC0C18BF03325FEABC
:1004F000DC0C18BF033202EBDC02C2F1200300FA6D
:1005000003FC20FA02F001FA03FE40EA0E0021FA91
:1005100002F11444BDE600BF70B54FF0FF0C4CF47F
:10052000E06C1CEA11541DBF1CEA135594EA0C0F31
:1005300095EA0C0F00F0DEF82C4481EA030621EA6C
:100540004C5123EA4C5350EA013518BF52EA0335A7
:1005500041F4801143F4801338D0A0FB02CE4FF059
:100560000005E1FB02E506F00042E0FB03E54FF089
:100570000006E1FB03569CF0000F18BF4EF0010E81
:10058000A4F1FF04B6F5007F64F5407404D25FEA7D
:100590004E0E6D4146EB060642EAC62141EA555130
:1005A0004FEAC52040EA5E504FEACE2EB4F1FD0C72
:1005B00088BFBCF5E06F1ED8BEF1004F08BF5FEAF0
:1005C000500E50F1000041EB045170BD06F00046A2
:1005D00046EA010140EA020081EA0301B4EB5C044F
:1005E000C2BFD4EB0C0541EA045170BD41F4801147
:1005F0004FF0000E013C00F3AB8014F1360FDEBF6C
:10060000002001F0004170BDC4F10004203C35DA47
:100610000C341BDC04F11404C4F1200500FA05F3CA
:1006200020FA04F001FA05F240EA020001F000426B
:1006300021F0004110EBD37021FA04F642EB0601E1
:100640005EEA430E08BF20EAD37070BDC4F10C040B
:10065000C4F1200500FA04F320FA05F001FA04F2CF
:1006600040EA020001F0004110EBD37041F10001BB
:100670005EEA430E08BF20EAD37070BDC4F12005C6
:1006800000FA05F24EEA020E20FA04F301FA05F22E
:1006900043EA020321FA04F001F0004121FA04F2D6
:1006A00020EA020000EBD3705EEA430E08BF20EAA6
:1006B000D37070BD94F0000F0FD101F000464000E0
:1006C00041EB010111F4801F08BF013CF7D041EA62
:1006D000060195F0000F18BF704703F00046520066
:1006E00043EB030313F4801F08BF013DF7D043EA37
:1006F0000603704794EA0C0F0CEA135518BF95EAED
:100700000C0F0CD050EA410618BF52EA4306D1D173
:1007100081EA030101F000414FF0000070BD50EA92
:10072000410606BF1046194652EA430619D094EA1C
:100730000C0F02D150EA013613D195EA0C0F05D106
:1007400052EA03361CBF104619460AD181EA03015A
:1007500001F0004141F0FE4141F470014FF0000012
:1007600070BD41F0FE4141F4780170BD70B54FF0AD
:10077000FF0C4CF4E06C1CEA11541DBF1CEA13552D
:1007800094EA0C0F95EA0C0F00F0A7F8A4EB05040F
:1007900081EA030E52EA03354FEA013100F0888006
:1007A0004FEA03334FF0805545EA131343EA1263CF
:1007B0004FEA022245EA111545EA10654FEA002684
:1007C0000EF000419D4208BF964244F1FD0404F53D
:1007D000407402D25B084FEA3202B61A65EB030599
:1007E0005B084FEA32024FF480104FF4002CB6EB56
:1007F000020E75EB030E22BFB61A754640EA0C00D6
:100800005B084FEA3202B6EB020E75EB030E22BF15
:10081000B61A754640EA5C005B084FEA3202B6EB56
:10082000020E75EB030E22BFB61A754640EA9C0015
:100830005B084FEA3202B6EB020E75EB030E22BFE5
:10084000B61A754640EADC0055EA060E18D04FEAA3
:10085000051545EA16754FEA06164FEAC30343EA43
:1008600052734FEAC2025FEA1C1CC0D111F4801F10
:100870000BD141EA00014FF000004FF0004CB6E709
:1008800011F4801F04BF01430020B4F1FD0C88BFA8
:10089000BCF5E06F3FF6AFAEB5EB030C04BFB6EBB3
:1008A000020C5FEA500C50F1000041EB045170BDA6
:1008B0000EF0004E4EEA113114EB5C04C2BFD4EBD3
:1008C0000C0541EA045170BD41F480114FF0000E57
:1008D000013C90E645EA060E8DE60CEA135594EAD3
:1008E0000C0F08BF95EA0C0F3FF43BAF94EA0C0FD6
:1008F0000AD150EA01347FF434AF95EA0C0F7FF44B
:1009000025AF104619462CE795EA0C0F06D152EA9E
:1009100003353FF4FDAE1046194622E750EA410682
:1009200018BF52EA43067FF4C5AE50EA41047FF493
:100930000DAF52EA43057FF4EBAE12E74FEA4102F6
:10094000B2F1E04324BFB3F5001CDCF1FE5C0DD92D
:1009500001F0004C4FEAC0024CEA5070B2F1004F77
:1009600040EB830008BF20F00100704711F0804F7A
:1009700021D113F13872BCBF01F00040704741F43F
:1009800080114FEA5252C2F11802C2F1200C10FA43
:100990000CF320FA02F018BF40F001004FEAC12327
:1009A0004FEAD32303FA0CFC40EA0C0023FA02F3CB
:1009B0004FEA4303CCE77FEA625307D150EA0133A1
:1009C0001EBF4FF0FE4040F44000704701F0004071
:1009D00040F0FE4040F40000704700BF7BB972B9A0
:1009E0000029BEBF00204FF0004106E008BF0028EC
:1009F0001CBF6FF000414FF0FF3000F0B9B9ADF10E
:100A0000080C6DE904CE002909DB002B1ADB00F08D
:100A10004DF8DDF804E0DDE9022304B07047404200
:100A200061EB4101002B1BDB00F040F8DDF804E036
:100A3000DDE9022304B0404261EB4101524263EB25
:100A400043037047524263EB430300F02FF8DDF895
:100A500004E0DDE9022304B0404261EB410170474C
:100A6000524263EB430300F021F8DDF804E0DDE9D6
:100A7000022304B0524263EB4303704753B94AB9AF
:100A8000002908BF00281CBF4FF0FF314FF0FF3096
:100A900000F06EB9ADF1080C6DE904CE00F006F877
:100AA000DDF804E0DDE9022304B070472DE9F047EA
:100AB000089D04468C46002B40F083808A421746EE
:100AC00047D9B2FA82F242B1C2F1200024FA00F012
:100AD0009140974040EA010C94404FEA1748230C9C
:100AE000BCFBF8F61FFA87FE08FB16C143EA014378
:100AF00006FB0EF1994209D9FB1806F1FF3080F090
:100B00001981994240F21681023E3B445B1AA4B21D
:100B1000B3FBF8F008FB103344EA034400FB0EFE7D
:100B2000A64509D93C1900F1FF3380F00581A6459F
:100B300040F2028102383C4440EA0640A4EB0E0435
:100B400000261DB1D4400023C5E900433146BDE86D
:100B5000F08702B9FFDEB2FA82F2002A50D1CB1B35
:100B60004FEA174E1FFA87F80126B3FBFEFC210C53
:100B70000EFB1C3341EA034108FB0CF38B4207D9FF
:100B800079180CF1FF3002D28B4200F2E9808446E2
:100B9000C91AA3B2B1FBFEF00EFB101143EA0144E7
:100BA00008FB00F8A04507D93C1900F1FF3302D239
:100BB000A04500F2D9801846A4EB080440EA0C4096
:100BC000BFE78B4209D9002D00F0B1800026C5E9AE
:100BD000000130463146BDE8F087B3FA83F6002EB7
:100BE0004AD18B4202D3824200F2B880841A61EB70
:100BF000030101208C46002DA8D0C5E9004CA5E7D3
:100C0000C2F1200320FA03F6974001FA02F04FEAFE
:100C1000174ED9403043030CB1FBFEF61FFA87F89C
:100C20000EFB161143EA014306FB08F1994204FA50
:100C300002F409D9FB1806F1FF3C80F08D8099423F
:100C400040F28A80023E3B445B1A81B2B3FBFEF065
:100C50000EFB103341EA034100FB08F38B4207D936
:100C6000791800F1FF3C73D28B4271D902383944B4
:100C7000CB1A40EA064678E7C6F1200C03FA06F4E0
:100C800022FA0CF31C4320FA0CF701FA06F34FEAA0
:100C9000144E21FA0CF11F433B0CB1FBFEF91FFA75
:100CA00084F80EFB191143EA014109FB08FA8A4551
:100CB00002FA06F200FA06F308D9611809F1FF30CA
:100CC00048D28A4546D9A9F102092144A1EB0A017B
:100CD000BFB2B1FBFEF00EFB101147EA014700FB6B
:100CE00008F8B84507D9E71900F1FF312ED2B84509
:100CF0002CD90238274440EA0940A7EB0807A0FB9B
:100D000002894F45C64649461AD317D05DB1B3EBA9
:100D10000E0267EB010707FA0CFCF2404CEA0202F4
:100D2000F740C5E9002700263146BDE8F0872E468A
:100D300028460BE70646E9E61846FDE64345E5D2B8
:100D4000B8EB020E69EB04010138DFE70846D2E791
:100D500060468DE78146B9E7664675E730464AE763
:100D6000ACF1020C394413E702383C4424E700BFDD
:100D7000704700BF4FF0FF3C06E000BF4FF0010C92
:100D800002E000BF4FF0010C4DF804CD4FEA410CDA
:100D90007FEA6C5C4FEA430C18BF7FEA6C5C1BD0A7
:100DA00001B050EA410C0CBF52EA430C91EA030F28
:100DB00002BF90EA020F0020704710F1000F91EA85
:100DC000030F58BF994208BF90422CBFD8176FEA53
:100DD000E37040F0010070474FEA410C7FEA6C5C21
:100DE00002D150EA013C07D14FEA430C7FEA6C5C28
:100DF000D6D152EA033CD3D05DF8040B704700BF54
:100E00008446104662468C461946634600E000BFA1
:100E100001B5FFF7B7FF002848BF10F1000F01BD73
:100E20004DF808EDFFF7F4FF0CBF012000205DF83E
:100E300008FB00BF4DF808EDFFF7EAFF34BF0120C3
:100E400000205DF808FB00BF4DF808EDFFF7E0FF5C
:100E500094BF012000205DF808FB00BF4DF808EDAD
:100E6000FFF7CEFF94BF012000205DF808FB00BF14
:100E70004DF808EDFFF7C4FF34BF012000205DF8F6
:100E800008FB00BF4FEA410212F5001215D211D53E
:100E90006FF47873B3EB625212D94FEAC12343F077
:100EA000004343EA505311F0004F23FA02F018BFF9
:100EB000404270474FF00000704750EA013005D1C2
:100EC00011F0004008BF6FF0004070474FF0000085
:100ED000704700BFF8B515460A4A1C4656682EB141
:100EE00001B02A46B446BDE8F040604700208DF8C6
:100EF0000000684603F05CFA9DF80000281A207094
:100F00000020F8BD00000020002819D00378134904
:100F1000134A13B1012B0ED011E00379012B00D03D
:100F20006BB943790BB1012B09D18368643B8B42C8
:100F300005D2C0680EE00379012B02D00BB100206E
:100F4000704743790BB1012BF9D1C368643B8B42E5
:100F5000F5D280689042F2D8012070473D860100AA
:100F6000FF1FA10710B5054C206810B18047002075
:100F70002060BDE8104001F035BC000008000020F2
:100F80002DE9F0410E46050004D000F045F8074673
:100F900000240AE06FF01500BDE8F081204600F063
:100FA00041F8807838B1641CE4B2BC42F6D300BF8B
:100FB0006FF00B00F0E72746FF2CF9D0204600F039
:100FC00031F8044603F097FB27712146074801F0EA
:100FD000E1FBE070202805D00120A560A0703770EB
:100FE0000020D9E76FF02200D6E700005744000048
:100FF00010B5820702D06FF00D0010BD054A1170C8
:10100000506028B101EBC1018A00002103F0A9FD65
:10101000002010BD0C00002001480078704700003F
:101020000C00002005490A78904201D30020704747
:10103000496800EBC00001EB800070470C00002005
:1010400070B50546202A27D019481A4C00EB831C9E
:101050000CEB420004EB8303202922D00CEB41016E
:1010600040784C784870204601460CEB4100914294
:1010700005704078F8D193F82220202A1ABF0CEB93
:101080004202547083F8214020220CEB410C8CF872
:10109000012083F8221070BD40F27E21702002F002
:1010A000ADFD93F82040407883F82000DBE7000096
:1010B00080110020001200202DE9FF4F85B0154659
:1010C0000C4601F027FD284420F07F400290216863
:1010D000081A0002C11700EB11600012002800F38B
:1010E000D580AC48089FAC4E00EB8700039090F889
:1010F00020502020E9460DF104088DF8000006F587
:10110000407A202D18BF0AEB871B25D005EB450040
:1011100006EBC0002268C168511A0902CA1701EB28
:1011200012610830091217D4618971B1418961B91E
:1011300000F0B2FD01F0EEFC2168081A0002C117B0
:1011400000EB11600012332806DB0BEB450089F839
:1011500000504578202DD9D199F8000088F800007A
:10116000A146202D1CBF8D4800EB871B00F00E818F
:1011700005EB450106EBC10AD9F80420DAF808109E
:101180004846891A0902CA1701EB12610AF10807D9
:10119000091215D47989002900F0F88041890029C5
:1011A00040F0F48000F078FD01F0B4FC3968081AD2
:1011B0000002C11700EB11600012332880F2E680B4
:1011C00088F800509AF8141099F80C00814206D95A
:1011D0000BEB45004578202DCAD100F0D7B89DF81B
:1011E000040000EB400006EBC005688AEF680028A9
:1011F00043D16089E8B3A86803F011FB698A2A7CAF
:10120000674B1144491C4218984204D940F20961C5
:10121000702002F0F3FC6348814204DD40F20A6171
:10122000702002F0EBFC6048814204DA40F20B616E
:10123000702002F0E3FC5D489042DCBF02F5F7024B
:10124000A2F1F85205DD002ABCBFA2F5F70202F1B7
:10125000F852104601F05EFC20F07F41781A00023F
:10126000C21700EB126000123328B8BF01F133003F
:1012700000E002E0B8BF20F07F470298381A000271
:10128000C11700EB11600012002803DD09B0002037
:10129000BDE8F08FD4E90010401A384427F07F41B0
:1012A00020F07F40C4E900100398DDF820806F46ED
:1012B00090F8205020200DF1040A8DF80000202D18
:1012C0001CBF364800EB881925D000BF05EB450050
:1012D00006EBC0002268C168511A0902CA1701EB67
:1012E00012610830091216D4618971B1418961B95E
:1012F00000F0D2FC01F00EFC2168081A0002C117B0
:1013000000EB11600012332805DB09EB45003D704E
:101310004578202DDAD138788AF800002746202D2C
:101320001CBF1E4800EB881B30D005EB450106EBC7
:10133000C1097968D9F808203846511A0902CA1734
:1013400001EB126109F10808091212D4B8F80A1069
:10135000E1B14189D1B900F09FFC01F0DBFBD8F885
:101360000010081A0002C11700EB116000123328A8
:101370000CDA8AF8005099F81400397B88427FF61D
:101380002EAF0BEB45004578202DCED109B00120C2
:10139000BDE8F08F00120020800E00208011002098
:1013A000FF7F841E0020A10700E05EF80080841EFD
:1013B0002DE9F05F04463C480E4600EB86003B4FAB
:1013C00090F82050202098469246107007F54079FA
:1013D000202D18BF09EB861B28D000BF05EB450068
:1013E00007EBC00000F10801C0682268101A000273
:1013F000C21700EB1260001218D4608978B14889D6
:1014000068B9084600F048FC01F084FB2168081A1E
:101410000002C11700EB11600012332806DB0BEB52
:1014200045008AF800504578202DD7D19AF8000061
:1014300088F80000202D18BF09EB861A30D005EB84
:10144000450107EBC1096168D9F808202046511A07
:101450000902CA1701EB126109F10806091210D43A
:101460007189E9B14189D9B900F016FC01F052FB4C
:101470003168081A0002C11700EB1160001233280E
:101480000EDA88F8005099F81400217B884202D8BF
:101490000020BDE8F09F0AEB45004578202DCED115
:1014A0000120BDE8F09F000000120020800E002007
:1014B0002DE9F74F98B016460D464FF000084FF053
:1014C000010B01F0A9FD0446012D18BF022D05D026
:1014D00040F694114FF0700002F090FBF8490120A3
:1014E0000860F8498968086000208DF84E000C906B
:1014F000401E0E90F44806EB460100EBC101083196
:101500000FAF0FC987E80F000FA800F0C5FB0D90C3
:10151000ED48BDF84690B0F89C03ADF84C00B9F129
:10152000000F14BF4FF0010A4FF0000A0F981490FB
:10153000BAF1000F09D0E54890F82C0028B902F064
:10154000E5FA002808BF012700D00027E048002165
:10155000159100780E46012818BF03283FD1DC48BA
:10156000B0F80280A8EB09001590C84537D90D9B4B
:10157000DFF860E36FEA080C03A917AA03EB0C007D
:10158000734504D940F20961702002F037FBD24B59
:101590009C4504DD40F20A61702002F02FFBCF4B26
:1015A0009C4504DA40F20B61702002F027FBCC4B23
:1015B0008342DCBF00F5F700A0F1F85005DD0028FC
:1015C000BCBFA0F5F70000F1F85001F0BFFA039896
:1015D0000F9920F07F400390081A20F07F41002FE0
:1015E00018BF322604D19DF84C00002818BF0226EF
:1015F000B4F1807F08D00F98001B0002C21700EBE7
:1016000012600012012802DA042218980BE047B198
:10161000AE4890F82D0020B19DF84C00061C18BF74
:10162000022620460122B9F1000F02D0159B1E2B85
:1016300002DA9DF84C3013B14FF0000B521EA44B50
:101640009DF84DE032441B7815930F9B5B1A23F0F5
:101650007F4CACEB00031B02DE1703EB16631B127F
:10166000934218DB002918BFCDF83CC00F9E0597A8
:10167000002701F0C9FB301A0002C11700EB11600E
:1016800000123E283FDA012D20D0701E059920F06F
:101690007F4019B32DE081B1BEF1000F04BF159B4F
:1016A000032B0AD027B99DF84C10002918BF921EB1
:1016B00000218DF84C108846C7E707BB9DF84C30D9
:1016C000EBB100238DF84C30921EBEE7B4F1807F61
:1016D00020D140F60D11702002F090FAB4F1807F15
:1016E00007D0211A0902CA1701EB12610912042955
:1016F00003DD044601F08EFB0CE000290ADD1BB07F
:101700000020BDE8F08F701E20F07F44204601F0DD
:1017100081FB5746B4F1807F24D00F98714A001B9B
:1017200020F07F411098001B20F07F408B4598BF30
:10173000B1F5800FE3D28242E1D3204603F06FF887
:1017400064490D9A4B1C161AB6EB930F24BFA0EBFD
:10175000020CBCEB930F10D3B14208D2081A10440C
:10176000461C0AE040F62D21702002F047FA614540
:101770002CD2891A0844401C46425448807F50B3FA
:10178000284645464FF0000BD846012805D00220D8
:1017900001F098FD012001F095FDA94527D2A6EBA7
:1017A00005014FF001034FF003024FF0020001F07A
:1017B000B5FC002808BF4FF00108B9F1000F30D088
:1017C0000123A6EB0901032218461EE040F60C3166
:1017D000702002F013FAC14534BF404648465844D1
:1017E000B042CDDB4FF42461702002F007FA10D92B
:1017F0000123A6EB09010322184601F08FFC28B350
:101800007DB1711B01230322022001F087FCE8B1A6
:1018100007E055EA090004D040F67711702002F085
:10182000EDF9012303223146002001F077FC68B175
:101830000125B8F1000F03D014980F908DF84CB02B
:10184000DFF8A480BAF1000F0ED109E0022001F008
:1018500039FD012001F036FD1BB00020BDE8F08FFE
:101860001A4890F82D0000B14FB3DFF860A09AF845
:101870002C0018B102F018F88AF82CB0D7B3A4F1F4
:10188000320020F07F414FF40020C8F80000002310
:101890000322052001F042FC68B34FF0804405208C
:1018A00001F0F6FD1149C1F81005C1F814451049C1
:1018B000E0120860054C94F82D00E8B330E01BE01E
:1018C0000805004014000020800E002000120020B7
:1018D00016000020FF7F841E0020A10700E05EF8B4
:1018E0000080841EFFFF3F0008F5014098F0014092
:1018F00004F5014005E025E0DFF8B4A09AF82C00DB
:10190000C8B12B4C94F82D0050B14FF40020C8F80A
:101910000000052001F0D6FC02F02EF884F82DB06E
:10192000A6EB0900A0F11901002915DC40F6712190
:10193000702002F063F900E009E001F0D1FF8AF8BD
:101940002C509BE740F23E31702002F057F902F034
:1019500005F884F82D50E3E703220123104601F037
:10196000DDFBF8B113488068C0F800B01248C0F839
:1019700000B00DF13008114898E8FE10C0F880134F
:10198000C0F88423C0F88833C0F88C43C0F8905363
:10199000C0F89463C0F89873C0F89CC31BB00120D2
:1019A000BDE8F08F40F67921702002F027F90000A1
:1019B000001200201400002008050040800E0020C6
:1019C0002DE9F043064683B008789073CF7A5773B9
:1019D000887A10730889144650810D460A785F4949
:1019E00099464FEA810C4B42ACF101085AB1C04311
:1019F000D5F8048004F1080288423DDD40F20A6116
:101A0000702002F0FBF8EE686D686FEA000904F1DF
:101A1000080206EB0900464504D940F2096170202E
:101A200002F0ECF88945E9DC994528DB8445DCBF08
:101A300000F5F700A0F1F85005DD0028BCBFA0F5C7
:101A4000F70000F1F850214601F080F8206820F0FE
:101A50007F417019401C2160002F08BF7A3003D0ED
:101A6000012F08BF48302DD101F054F820F07F40FD
:101A7000606003B0BDE8F0830146984204DA40F2AA
:101A80000B61702002F0BAF88445DCBFA1F1F4507C
:101A9000A0F5902005DD0028BCBF01F1F45000F551
:101AA0009020214601F052F82068002F20F07F415D
:101AB00008F10100216008BF7A3008D0012F08BF6B
:101AC000483004D040F2B161702002F097F801F084
:101AD00021F820F07F416160608901AA694601F028
:101AE00035F81F4890F82F10202923D00069401D99
:101AF00020F07F40D4E90021891A2060084420F0BA
:101B00007F4060604B4632462146E868FFF7D4FAD2
:101B100000281CBF03B0BDE8F083D4E90010401AD0
:101B2000304426F07F4120F07F40C4E9001003B02C
:101B3000BDE8F083608906F1090720B101F0E6FFF6
:101B4000002808BF3237074841780098814284BF97
:101B5000081A074427F07F40CCE700000020A107C7
:101B6000001200201600002010B5154C94F82F002C
:101B7000202818BF10BD94F82E2004EB820090F8A6
:101B80002010202917D0DFF83CC00CEB821303EBA8
:101B900041035B7880F82030012380F8233084F8FB
:101BA0002B3084F82F10022000F0B0F8002084F8C9
:101BB0002A00A07710BD40F28B31702002F01EF891
:101BC00000120020801100202DE9F05FDFF8B880BE
:101BD00098F82E5008EB850090F82140202C08BF83
:101BE000BDE8F09FDFF8A4B0DFF8A4A0AAF5407923
:101BF0000AEB8517072617F8140001280ED00428D1
:101C000008BF02260AD005280CBF0326062805D0E7
:101C100040F6D9014FF0700001F0F0FFBBF1000F6A
:101C200018BFAFF30080EFF3108072B607EB4401EA
:101C30004A7808EB850181F8212091F82220A24200
:101C400004BF202281F82220B8B12A462146012073
:101C500000F05CF804EB440109EBC10059F83120B5
:101C600040683146904798F82E5008EB850090F870
:101C70002140202CBCD1BDE8F09F0648002818BFA9
:101C8000AFF3008062B6E0E7001200200000000021
:101C9000801100200000000010B50446006802F02A
:101CA000BEFD02466089217A144B0844411C50183D
:101CB0009A4204D940F20961702001F09FFF104A56
:101CC000914204DD40F20A61702001F097FF0D4A55
:101CD000914204DA40F20B61702001F08FFF0A4953
:101CE0008142DEBF00F5F700A0F1F85010BD0028DA
:101CF000BCBFA0F5F70000F1F85010BDFF7F841EB7
:101D00000020A10700E05EF80080841EDFF854C0C8
:101D100010B500230CEB821C07281ED2DFE800F070
:101D2000050505050404040001230CF81100002B2F
:101D300008BF10BD0C4800EB820292F82200202858
:101D40000EBF82F821100CEB4000417020200CEBFC
:101D50004103587082F8221010BD4FF415717020A5
:101D600001F04CFF80110020001200202DE9F34FFC
:101D700083B05C48049900EB8100019090F820400A
:101D800003982546012818BF022805D04FF42B617F
:101D90004FF0700001F032FF0027202D4AD051484B
:101DA00000910026807F002808BF022601F02CF851
:101DB000DFF838A104EB44010AEBC101DFF82891F8
:101DC0008A68C968121A091A22F07F4221F07F41FD
:101DD000964298BFB2F5800F01D2894528D2444A75
:101DE000009902EB811B22460BEB42014C78202C20
:101DF00016D004EB44010AEBC10CDCF80880DCF8D7
:101E00000CC0A8EB000828F07F48ACEB000121F0E3
:101E10007F41464598BFB8F5800FE4D28945E2D3AB
:101E2000202A05D020210420009BFFF709F9044651
:101E3000AC4215D12F48002818BFAFF3008000F046
:101E4000E3FF284C94F8301020290DD0E168821C63
:101E5000511A0902CA1701EB12610912002903DDA8
:101E600005B00020BDE8F08F202D0DD02A46039943
:101E7000FFF71EFB58B3019880F8237084F83050A8
:101E800005B00120BDE8F08F94F82C0018B101F0E6
:101E90000BFD84F82C7094F82D0050B116494FF4C6
:101EA00000200860052001F00DFA01F065FD84F8BE
:101EB0002D70042001F006FA01F072FA202084F857
:101EC00030000E48806807600D480760D8E72A4652
:101ED00020210420049BFFF7B3F805B00020BDE8E3
:101EE000F08F000000120020FFFF3F00800E002056
:101EF000801100200000000008F5014014000020BF
:101F0000080500402DE9F04F5B4E814685B096F8FC
:101F10002F008A4620284DD096F82F0006F10C0499
:101F200000EB4000A6F5607808EBC00720208DF894
:101F3000000096F82E0003AA06EB800001A990F895
:101F40002050306902903068484400F0FFFDF86886
:101F500001994A4A0844A9F1650191422FD8B9680C
:101F6000411A21F07F41B1F5800F28D220F07F4047
:101F70006060304684F80CA090F82E00EA46202DD0
:101F80001CBF3F4901EB801B3CD005EB450008EB33
:101F9000C0076068BA682146101A0002C21700EB39
:101FA000126007F1080600121BD4708950B34889EB
:101FB00048B127E040F67B31702001F01FFE05B0EC
:101FC0000120BDE8F08F2046FFF766FE00F0A2FD7D
:101FD0003168081A0002C11700EB116000123328A3
:101FE00010DA8AF80050397D207B814205D80298AA
:101FF000606005B00220BDE8F08F0BEB450045782E
:10200000202DC2D1052001F05DF91B4C4FF0FF30AF
:10201000A06094F82E309DF800202021202A13BFC4
:10202000052004EB830090F82000FFF709F894F8EE
:102030002E20134901EB821194F82F2001EB42016D
:102040004870206848442060012084F82B00607E9E
:10205000012805D12069401E20F07F4000F078FF64
:102060009DF80000202803D00648407801F096FE35
:1020700005B00020BDE8F08F001200209B1FA107D3
:10208000801100201400002070B5234A92F82F1010
:10209000202939D092F82F10A2F5607301EB41018D
:1020A00003EBC10C92F82E1092F82E4002EB810146
:1020B00091F82010A2F1800505EB8414202928D086
:1020C00001EB410503EBC5052D7D854284BF04EB83
:1020D00041014978F2D801EB410103EBC101DCF881
:1020E0000C0089681468081A0002C11700EB11601F
:1020F000001207D402F093FB04F16501884224BF6B
:10210000001B70BD002070BD40F64D31702001F005
:1021100075FD4FF0FF3070BD001200200246144BD9
:1021200010B508449A4204D940F20961702001F0C8
:1021300065FD104A914204DD40F20A61702001F011
:102140005DFD0D4A914204DA40F20B61702001F00E
:1021500055FD0A498142DEBF00F5F700A0F1F850B5
:1021600010BD0028BCBFA0F5F70000F1F85010BD6D
:10217000FF7F841E0020A10700E05EF80080841E1F
:10218000074991F83020824204BF4868704700EB4D
:102190004000044901EBC0000830FFF77DBD00009E
:1021A00000120020800E00200E4910B591F82F007B
:1021B000202812D091F82F00A1F5607200EB4000AA
:1021C00002EBC00091F82F10406801EB410152F87A
:1021D0003120BDE810400421104740F6BC017020BA
:1021E00001F00CFD00120020F8B56D4D6D4901267F
:1021F00005F56074082873D2DFE800F004679DAF2E
:10220000CD44B4B994F82C0018B901F069FB84F8F6
:102210002C60E08A10B101F079FC88B1FFF7A4FCD2
:1022200084F82960A168B1F1FF3F05D001230322A2
:10223000052000F073FF40B1607E012810D109E055
:102240004FF40761702001F0D9FC40F67501702051
:1022500001F0D4FC2069401E20F07F4000F078FEA1
:1022600094F82F0094F82F1000EB400005EBC0000D
:10227000406801EB410155F8312001B00121BDE872
:10228000F0401047FFF770FC4FF0FF30A06094F86B
:1022900029008DF800009DF8000088B194F82F0007
:1022A00094F82F1000EB400005EBC000406801EBF4
:1022B000410155F8312001B00621BDE8F04010473A
:1022C00040F68601702001F099FCFFF74DFC84F880
:1022D000286001F01BFC20B194F82C0030B109E01B
:1022E00059E040F69601702001F088FC01F0F8FA00
:1022F00084F82C6094F82D0058B12B494FF400203D
:102300000860052000F0DEFF01F036FB002084F8B5
:102310002D0094F82F0094F82F1000EB400005EBEF
:10232000C000406801EB410155F8312001B00021A7
:10233000BDE8F040104701F07DF8E08A10B101F0EF
:10234000E5FB28B119480078032808BF6677F8BD77
:1023500040F6A101702001F051FC15480660886824
:102360000660F8BD0878BDE8F84001F017BDFFF73A
:10237000FBFB94F82F0094F82F1000EB400005EBC6
:10238000C000406801EB410155F8312001B0052142
:10239000BDE8F040104740F6B401702001F02EFC7B
:1023A000800E00201400002008F5014016000020D7
:1023B000080500402DE9F34F8246DC488BB00068E9
:1023C000DB4DC005C00D0ED0103840B20028B8BF9C
:1023D00000F00F0000F1E020ACBF90F8000490F88E
:1023E000140D40090DD00C984FF0000B0078002818
:1023F00018BF012818D040F24F714FF0700001F063
:10240000FDFB95F82F004FF0010B202807D00C980A
:10241000007848B140F24B71702001F0EFFB4FF4AF
:10242000E961702001F0EAFBC24C24B1002140F2C6
:102430005270AFF30080C0490AEB4A0001EBC000C4
:102440004FF00108009024B1002140F25A70AFF320
:102450000080B8F1000F09D095F82E604FF0000908
:1024600085F82B90BBF1000F07D032E0B34800286D
:1024700018BFAFF3008062B6EEE73746012020EACE
:102480000706AF48402200EB871100EB861002F0F0
:10249000EEFA24B1002140F2CD50AFF3008005EBFD
:1024A000870105EB8600096A016224B1002140F230
:1024B000D150AFF3008024B1002140F26470AFF33B
:1024C000008095F82B008DF804009DF8040000288A
:1024D000B9D124B1002140F26E70AFF3008000F05A
:1024E00093FC8046334606AA0C99FFF769FA24B19B
:1024F000002140F27570AFF30080914906A801EB0E
:10250000861717F81A10012918BF02293CD106991D
:10251000079BA1EB08018B4A21F07F41A3EB080345
:1025200023F07F43022971D3B1F5800F6ED29A4216
:102530006CD34FF0010901AB05AA3146FEF738FF15
:1025400000286BD09DF814109DF8042033468A4271
:1025500068D00520FEF774FD07EB4A0148709DF82E
:102560001400202803BF05EB860080F820A080F827
:10257000239007EB400018BF80F801A03246514677
:102580005FF00300FFF7C2FB05EB860090F8230025
:102590008DF804009DF8047024B1002140F27C7095
:1025A000AFF300806848002818BFAFF30080EFF356
:1025B000108872B624B1002140F28270AFF300801F
:1025C00095F82B008DF804009DF8040000287FF496
:1025D0003AAF24B1002140F28A70AFF300800DF1D0
:1025E000180E00989EE80E1000F10800B9F1000FD7
:1025F00080E80E1044D024B1002140F29770AFF370
:102600000080BBF1000F2CD116E0FFE732465146A7
:102610000420FFF77BFB4FF00109B5E73246514636
:102620000420AFE7202919BF07EB4100407805EBF4
:10263000860090F820008FE79FB195F82F002028A2
:102640000FD124B1002140F29C70AFF300803146DD
:102650000220FFF78BFB20B90C980078F0B301281B
:102660004CD024B1002140F2B970AFF30080BBF12F
:10267000000F18BF01204AD085F82B004FF0010948
:1026800024B1002140F2CA70AFF30080B8F1000F0E
:1026900045D024B1002140F2CE70AFF30080B9F1F3
:1026A000000F11D095F82E0005EB800090F8210066
:1026B000202809D024B1002140F2D570AFF300806A
:1026C0002248407801F06AFB24B1002140F2DA7020
:1026D000AFF300800DB04846BDE8F08FFFE724B1AE
:1026E000002140F2A470AFF3008095F82E205146EF
:1026F0000420FFF70BFB4FF00109C1E7002C3FF46A
:10270000A2AE002140F2AF70AFF300809BE695F8D7
:102710002E10012020EA010185F82E10ACE70748B1
:10272000002818BFAFF3008062B6B2E704ED00E006
:102730000012002000000000800E002000000000B9
:1027400080110020FFFF3F00000000001400002067
:1027500010B5202811D20E4991F82E30A1F1800237
:1027600002EB831C1CF810303BB191F82E3002EBC9
:10277000831212F81020012A01D0002010BD91F818
:102780002E2001460020FFF7C1FA012010BD0000F5
:102790000012002070B50D46064601F0A5F90F485D
:1027A00090F82E200024803800EB821010F81410CE
:1027B00029B1611CCCB2202CF8D3202070BD084870
:1027C00004EB440140F8316000EBC1002146456054
:1027D0000120FFF79BFA204670BD00000012002088
:1027E000800E00202DE9F04F83B000F00DFB054670
:1027F00000F0D6FD674CA068B0F1FF3F1CBF4FF062
:10280000FF30A060A07FDFF890B1A8B9D4E9030140
:10281000081A0002C11700EB116000124FF40C718E
:1028200002F02AF821690844281A0002C11700EBB7
:1028300011600012C00F13D0607E28B394F82900F5
:102840008DF800009DF80000F0B100F0EBFB00BF38
:1028500094F82A00F0B140F24741702001F0CEF91F
:1028600094F82F0094F82F1000EB40000BEBC00001
:10287000406801EB41015BF83120082190474FF49B
:102880008661702001F0BAF9E81C20F07F4000F06A
:10289000C1FADDE74FF0010A84F82AA094F82F006E
:1028A000202824D094F82F80202084F82F0084F84A
:1028B0003000002684F8286084F8296037482660B4
:1028C0000078022816BF032801200020207794F802
:1028D0002E7004EB870999F82000202831D000EBF6
:1028E00040000BEBC000817D012905D029E040F2BA
:1028F0004A41702001F082F9AB4600F10805408A98
:1029000001AA694600F022F994F82F00202804D08B
:102910002069401D20F07F400BE068890BF1090B16
:1029200028B101F0F3F8002808BF0BF1320B2BF0AF
:102930007F40D5E90021891A2860084420F07F40B3
:10294000686039460120FFF711FA0028F9D01448D1
:1029500000EB871010F81800022804D13A464146CF
:102960000620FFF7D3F984F82BA099F8210020283E
:1029700003D00C48407801F011FA207F002804BFF2
:1029800003B0BDE8F08F00F055FD2677667703B001
:10299000BDE8F08F00120020800E002016000020FD
:1029A000801100201400002010B5324C82B094F841
:1029B0002F10202908D0A168B1F1FF3F09D040F6BF
:1029C000E921702001F01AF940F6E821702001F0A9
:1029D00015F962680146284B50189A4204D940F212
:1029E0000961702001F00AF9244A914204DD40F2A5
:1029F0000A61702001F002F9214A914204DA40F2A2
:102A00000B61702001F0FAF81E498142DCBF00F52D
:102A1000F700A0F1F85005DD0028BCBFA0F5F700D5
:102A200000F1F85001AA694600F090F89DF8040002
:102A30000F288CBF012000200099084420F07F411E
:102A4000A16094F829008DF800009DF8000000288E
:102A500004BF02B010BD01230322052000F05EFB7D
:102A600000281CBF02B010BD40F6F121702001F01B
:102A7000C5F8000000120020FF7F841E0020A1077F
:102A800000E05EF80080841E70B51E4C202184F8A2
:102A9000201084F8211084F82210002084F82300EC
:102AA00084F82E0084F82F10421EA2602060A077C8
:102AB00084F8280084F829002077607784F83010A3
:102AC000114984F82C0084F82D0008704870488063
:102AD000A4F182011022887001F8040F521EFAD16D
:102AE0000A4D012684F82A60FF202870084801F06A
:102AF00037F9687001F092F9A86000F0E3FC84F8FF
:102B0000316070BD0012002016000020140000206B
:102B1000C91B0000410B48F2376251430A0C094BB4
:102B2000510202FB03020848504300F586306E3024
:102B3000400D5B4210FB03F3B2EB532F88BF491CDF
:102B400008447047F7C2FFFF6F0C0100430B48F2C7
:102B5000376C03FB0CF330B41B0CDFF844C05C0291
:102B600003FB0C030F4858434FEA505C04EB0C0086
:102B700043F609541CFB04F404F5807C43F6085525
:102B8000A3EB5C2C2C440CF0FF0CB3EB542F84BF54
:102B90004FF0000C401C086082F800C030BC704749
:102BA000F7C2FFFF6F0C01002DE9F041364CD4F85D
:102BB00004034FF4006610F4803F4FF0E0274FF01D
:102BC000000519D031480068B0B1C4F84051C7F8C9
:102BD00080622F480068D4F80415401A20F07F4026
:102BE000022802D3B0F5800F06D34FF48030C4F82A
:102BF00008030420FFF7F8FAD4F8040310F4003FA8
:102C000019D024480068B0B1C4F84451C7F88062B4
:102C100021480068D4F80415401A20F07F400228AB
:102C200002D3B0F5800F06D34FF40030C4F8080388
:102C30000520FFF7D9FAD4F8040310F4802F08BF59
:102C4000BDE8F08115480068002808BFBDE8F081A4
:102C5000C4F84851C7F8806211480068D4F80415D8
:102C6000401A20F07F40022804D3B0F5800F38BF0F
:102C7000BDE8F0814FF48020C4F80803BDE8F041BE
:102C80000620FFF7B1BA000000B0004040B100409C
:102C900040B5004044B1004044B5004048B1004058
:102CA00048B500402DE9F041384D2878042868D017
:102CB000E81C0122017859B1012908BF6A7002D0CD
:102CC0006978002958D002210170407800F0FAFAA2
:102CD0002F4CD4F804034FF0000810F4002F4FF4E9
:102CE00080774FF0E0260AD02A48006838B10320E8
:102CF00000F0E8FAC6F880720320FFF775FAD4F8FE
:102D0000040310F4802F0AD02348006838B1022051
:102D100000F0D8FAC6F880720220FFF765FAD4F8FE
:102D2000040310F4003F0AD01C48006838B10120A9
:102D300000F0C8FAC6F880720120FFF755FAD4F8FF
:102D4000040310F4803F08BFBDE8F0811448006818
:102D5000002808BFBDE8F081002000F0B3FAC6F8F3
:102D6000807204202870C5F80880C4F80082BDE88D
:102D7000F0410020FFF738BA40F26A316C2000F0D1
:102D80003DFFBDE8F0410720FFF72EBA20000020EC
:102D9000008000404C810040488100404481004058
:102DA00040810040012211024FF0E0230020C3F8CF
:102DB000801103F5C073BFF34F8FBFF36F8FC3F85C
:102DC00000110E4941F8042F431EC1F80433C1F825
:102DD0003C05C1F83C010A4BC3F84005C1F840016D
:102DE0001B1DC3F84005C1F844011B1DC3F8400575
:102DF000C1F84801CA60034948707047008000402C
:102E00000480004020000020014800687047000056
:102E100004B500402DE9F047474E0546F71E3278CD
:102E2000F968012A04BFA942BDE8F0874FF040408D
:102E3000424B186042486FF48023C0F8083300F119
:102E400004034FF00004002A61D06FF4A02CC0F8F6
:102E500048C3C3F84045C0F844413A4B1B684FF0A3
:102E6000E0294FF00108002B04BF4FF40063C9F8BC
:102E700080324FF48033C0F80833C0F84833C0F8CC
:102E80004041D0F80435EB1A23F07F43022B4BD39B
:102E9000B3F5800F48D2C0F840554FF48033C0F8E6
:102EA000443332B1D0F804258A1A22F07F42022A34
:102EB000F8D3C7F808803C70FFF774FF2248D0F8B9
:102EC000041564F30101C0F80415D0F808250221A7
:102ED00061F30102C0F80825D0F81025042161F340
:102EE0000302C0F81025C0F80C80B968C0F80012C1
:102EF0008015C9F88002C9F800011449C0050860AE
:102F00000420FD60707086F80080BDE8F0876FF4E3
:102F1000802CC0F848C3C0F84045C0F84041C3F811
:102F20004045C0F8444198E70021C0F840154FF4EF
:102F3000FA716C2000F062FE2300002008F50140C9
:102F400000B0004048B100400080004004F501405E
:102F500070B52C4CE268824214BF01210021DFF8D9
:102F6000A8C09CF80050022D02D0002937D002E002
:102F7000002908BF70BD617881B3244B4FF08041B8
:102F800019608B132249C1F80833C1F84833002374
:102F9000C1F84031D1F80435C31A23F07F43022B26
:102FA00027D3B3F5800F24D2C1F840054FF4803306
:102FB000C1F844333DB100BFD1F80435D31A23F032
:102FC0007F43022BF8D3134B02214A071A60E060BB
:102FD00004208CF801008CF8001070BD04E040F271
:102FE00002216C2000F00AFE40F206216C2000F065
:102FF00005FE0020C1F8400540F212216C2000F0CF
:10300000FDFD0000200000202300002008F5014005
:1030100000B0004004F501400148C068704700005E
:10302000200000202DE9F04136496FF48020C1F8DE
:103030000803354D0B1D0022287868B16FF4A02CD1
:10304000C1F848C3C3F84025C1F844212F4B1B6881
:103050004FF0010C9BB90CE06FF4802CC1F848C311
:10306000C1F84025C1F84021C3F84025C1F84421EA
:10307000ECE74FF0E0244FF40063C4F880320228FC
:1030800004D040F21E216C2000F0B8FDD1F80405F8
:103090001F4CC01C20F07F40E3681E4E98420CD0AD
:1030A000D1F80475DF1B27F07F47042F05D3B7F550
:1030B000800F02D2FFF7AEFE1FE0D1F80405181A08
:1030C00020F07F40022815D3B0F5800F12D21249AC
:1030D0004FF080400860C4F808C02270C6F804C0F1
:1030E000C6F80CC04000091F08600420687085F80D
:1030F00000C002E0C4F808C02270A068C6F8000250
:10310000BDE8F08100B000402300002048B100403D
:10311000200000200080004008F501402DE9F04724
:10312000DFF890C1002601279CF800409CF801C000
:103130004FF4A07507287BD2DFE800F004040404F4
:103140006C6C6C00DFF87081D8F80C90B9F1807F5E
:1031500004BF98F80180B8F1000F02D0022C05D00E
:103160002CE040F251216C2000F048FDACF1040845
:1031700008F0FF0805EB880505F1804808F53048A0
:103180000025012C02D0022C0BD014E0BCF1040F5E
:1031900024BFD8F80090B9F1000F08BF4FF00045E8
:1031A00009E0BCF1040F24BFD8F80090B9F1000F7A
:1031B00008BF45F0804515F0804FE1D13F4C00F14C
:1031C000100C07FA0CFCC4F808C304EB8005C2B16C
:1031D0004FF0400808EB800808F0FF08A044C8F84A
:1031E000007004EB8000D0F84005A1EB000020F057
:1031F0007F40824298BFB0F5800F28BFC5F8406578
:1032000050D2C5F84015012B08BFC4F804C30120F3
:10321000BDE8F08734B1844504D14FF41D716C20B2
:1032200000F0ECFCA0F1040C0CF0FF04012B00E01A
:103230003BE00CBF4FF001084FF00008032C04D313
:1032400040F24D116C2000F0D9FCDFF874C004F19D
:10325000100307FA03F3CCF80833CCF8483305EB36
:1032600084044CF80460001FC0B20CEB80006AB10B
:10327000DCF804450C1B24F07F44A24298BFB4F54F
:10328000800F24BF0021C0F840150BD2C0F84015B4
:10329000B8F1000F18BFCCF80433CCF84433012048
:1032A000BDE8F0870020BDE8F08740F279216C206E
:1032B00000F0A4FC2300002020000020008000403B
:1032C00000B000402DE9F84300264FF4A0774FF0FE
:1032D0000108072851D2DFE800F00404040419199A
:1032E000190000F1100108FA01F22649C1F808237B
:1032F00001EB80030022C3F8402507EB80028E50CB
:10330000214951F820000090BDE8F8831F4D011FAE
:10331000CCB2297879B16A7882420CD11C4A4FF03C
:1033200040401060012908BFFFF73CFD2E7019498D
:103330004FF08070C86004F1100008FA00F11648E0
:10334000C0F80813C0F84813A1000144D1F8401593
:10335000D0F80425891A21F07F41022907D300EB18
:1033600084020021C2F8401507EB840146500B4847
:1033700050F824000090BDE8F88340F2F1216C2061
:1033800000F03CFC00800040408100402300002011
:1033900008F501402000002000B0004040B100408E
:1033A00020496FF48020C1F808031F480A1D0378E4
:1033B00000205BB16FF4A023C1F84833C2F8400588
:1033C000C1F844011949096899B90CE06FF48023E8
:1033D000C1F84833C1F84005C1F84001C2F84005C2
:1033E000C1F84401EEE74FF0E0224FF40061C2F86B
:1033F00080120F494FF0FF32C1F80823C1F8400591
:10340000C1F840010A1DC2F84005C1F84401121D6F
:10341000C2F84005C1F84801121DC2F84005C1F8C4
:103420004C01704700B000402300002048B100402C
:1034300000800040084890F902000028B8BF70479B
:1034400000F01F01012202FA01F14009800000F1A1
:10345000E020C0F8001270472000002010B50728B7
:103460000DD2DFE800F00404040406060600064955
:1034700002E0001F0549C0B201EB800010BD40F220
:103480009D216C2000F0BAFB4081004040B100401B
:1034900010B507280DD2DFE800F004040404060686
:1034A0000600064902E0001F0549C0B201EB80009A
:1034B00010BD40F29D216C2000F0A0FB4081004037
:1034C00040B1004010B51C48002404210470C01E07
:1034D00001708905C160FFF765FC4FF0E0234FF4F0
:1034E00000624FF0010CC3F88021BFF34F8FBFF390
:1034F0006F8FC3F880221148C0F804C0C0F808C01C
:10350000D0F804150029FBD1491EC0F80813C0F8F3
:103510004813C0F84045C0F840410949C1F840454A
:10352000C0F84441091DC1F84045C0F84841C3F8FE
:103530000021C0F800C010BD2300002000B00040F2
:1035400004B000402DE9F041164C607A002827D0E5
:103550004FF480718D05284601F0B2F980464FF492
:103560008271284601F0ACF900260746B8F1000F39
:1035700009D00120C5F80803207920B12671E0693F
:1035800008B18047E66137B1C5F804610220C5F88B
:10359000080300F067FA4046BDE8F04100F05AB871
:1035A000BDE8F0813000002010B501F033FA30B9E9
:1035B00001F047FA18B901F050FA002802D0024988
:1035C0000220086010BD0000340C004070B500F00F
:1035D00087F900F09BFA094C4FF0804530B1FFF7B6
:1035E000E3FF012028610420A07204E00320A07200
:1035F0000120C5F804030020E07170BD30000020F8
:1036000070B5134CA079F0B1012803D0E179401EC8
:10361000814218DA00F07AFA054600F05FFBA179E2
:10362000012902D9E179491CE1710DB1616900E01C
:103630002169411A022902DA11F1020F07DC0DB1EA
:10364000606100E02061BDE87040FFF7BFBF70BD62
:10365000300000202DE9F04706464FF080454FF43A
:103660008671284601F02CF980464FF4887128466F
:1036700001F026F9274C8246277804F1080001F072
:1036800093F910B14FF4D57116E04FF0010946B12E
:10369000A07A032805D10420A072FFF785FFC5F8A2
:1036A00010900026B8F1000F18D0C5F80C61A07A70
:1036B000042804D04FF4DE716D2000F09FFA01F071
:1036C000A9F928B901F0BDF910B901F0C6F908B19E
:1036D000114806600220A07200F0E6F8BAF1000F6F
:1036E00008D0C5F81061A07A022801D1FFF788FF41
:1036F000C5F814903FB12670A07A022801D1FFF7D7
:1037000065FF00F0D1F8BDE8F0470248083001F04D
:1037100062B9000030000020340C00402DE9F04771
:103720005C4C4FF000080646C4F818804378827855
:103730000078E07263710127A271BD0784F80780E9
:10374000052824D2DFE800F00F03051F2100A76140
:1037500009E000F0C5F80121284601F0B6F800287C
:10376000F9D00220A06101F0DCF8B0B100F0E8F976
:10377000217E01F0030188420FD1B07950B10220BF
:10378000C5F804036AE04448ECE74448EAE740F23D
:103790002D3149E000F0A8F960E0EF604FF4827A43
:1037A000C5F80481A069C5F8180501F01FF940B9F2
:1037B00001F026F928B901F03AF910B901F041F900
:1037C00038B14FF080513648D1F84412C1F342313C
:1037D000016001F00BF940B901F012F928B901F0CC
:1037E00026F910B901F02DF910B12D4810300760FD
:1037F000AF600220C5F80403B07978BBD5F80403A4
:1038000010F0020F0ED0DFF89C90D9F80010C943D9
:1038100041F30017D9F8001041F01001C9F8001069
:103820007F1C07E040F2EE216D2000F0E7F900BFB9
:1038300000F00AFB5146284601F042F80028F7D074
:1038400000F052F92FB9D9F8001021F01001C9F891
:1038500000100220C5F80803C5F80481A07970B1F2
:10386000307860B900F052F9064600F037FA6FF090
:10387000004216B1C4E9042001E0C4E904020121B8
:10388000284601F022F808B100F03AF984F80A80DD
:10389000BDE8F087300000200100020001000300B5
:1038A0003C05004010ED00E010B5EFF3108472B657
:1038B0000A48417829B14178491E4170417829B1BF
:1038C00008E040F20D116D2000F098F9807808B9F9
:1038D00000F02AF9002C00D162B610BD30000020A3
:1038E00010B5EFF3108472B606484178491C417058
:1038F0004078012801D100F0FFFF002C00D162B612
:1039000010BD000030000020054810B5C17821B17D
:1039100000210171C170FFF7C7FF002010BD00003A
:103920003000002070B50C4CE17861B90125E570DC
:10393000E061FFF7D5FF00F0E9F830B1E06910B1C0
:1039400080470020E061002070BD4FF0804025716D
:10395000C0F80453F7E7000030000020EFF31080B8
:1039600072B604498A78521C8A70002800D162B667
:10397000704700003000002010B5EFF3108472B6DD
:103980000A48817829B18178491E8170417829B12E
:1039900008E040F225116D2000F030F9807808B978
:1039A00000F0C2F8002C00D162B610BD300000203B
:1039B0002DE9F04104006FF015003CD02178042976
:1039C00039D80029617838D0002934D1A17800296C
:1039D00031D1002000F03FFF002000F02FFF4FF01A
:1039E00080484FF0FF31C8F808130026C8F800617E
:1039F000C8F80461C8F80C61C8F81061144F7E70F3
:103A0000A088B88100F06FFF012508B1FD707D70BE
:103A10000121404600F059FF08B100F071F820463E
:103A2000FFF77CFE7D72002000F008FF4FF0E021E0
:103A30003046C1F80051BDE8F0810029FBD02029B3
:103A4000F9D8A1782129F6D80129C2D1F3E70000DD
:103A5000300000200248807A002800D00120704702
:103A600030000020F8B51F4DE87A00280FD1287EDD
:103A700000F0030000F045FF002808D0EFF31081AC
:103A800072B6FFF7E7FF18B1002900D162B6F8BDA2
:103A90000126AE7201B962B618204FF08044C4F816
:103AA0000803A6614FF42070ADF80000BDF80000D7
:103AB000411EADF80010F9D20027C4F80C71C4F80B
:103AC00010710848083000F082FF2F70FFF77EFD6C
:103AD0006661687900F07F00C4F838051820C4F8E2
:103AE0000403F8BD3000002010B5044C207E00F027
:103AF000030000F006FF0028F8D010BD30000020C1
:103B000001490120087070476C0000204FF0804090
:103B1000D0F8000118B903480078002800D001202F
:103B2000704700006C0000204FF080400121416090
:103B30000021C0F800110148017070476C0000209E
:103B40000248006800F00300704700001C040040B9
:103B500010B531B1012907D040F2023105A000F0C3
:103B600021F8D0F8140401E0D0F8080400F00100B6
:103B700010BD00006E72665F636C6F636B2E680031
:103B8000BFF34F8F05480168054A01F4E061114316
:103B90000160BFF34F8F00BFFDE700000CED00E0B8
:103BA0000400FA0572B6034A526802B19047FFF763
:103BB000E7FF000050000020064810B5002101601A
:103BC00001210160084600F0C3FEBDE8104001205D
:103BD00000F0B1BEFC1F0040074810B50121416054
:103BE000891EC0F808130C2000F0B2FEBDE810409A
:103BF0000C2000F0A0BE000000C000400EB572B660
:103C00000F4A5568D5B1002203466E460A2403E0E8
:103C1000B0FBF4F0521CD2B20028F9D1B05409E044
:103C2000B3FBF4F004FB1030B3FBF4F3521ED2B23A
:103C30003030B054002AF3D13046A847FFF7A0FF38
:103C40005000002070B5174C06460D46607810B144
:103C50004FF0FF3070BD06B9134E62602570FFF75C
:103C6000ABFFFFF7B9FF3046FFF7A2FE0600F1D128
:103C7000FEF70AFFFFF7F6FE00F042FD284600F0CF
:103C80005AFE0120002D09DB05F01F0100FA01F1A9
:103C90006A09920002F1E022C2F800116070304619
:103CA00070BD0000500000207249000001484078BB
:103CB0007047000050000020074890F900000028DD
:103CC00009DB00F01F02012191404009800000F152
:103CD000E020C0F800127047500000202DE9F041AC
:103CE00001264FF0E02231034FF000084046C2F8B1
:103CF0008011BFF34F8FBFF36F8F164CC4F80001D4
:103D00000C2000F044FE144D2868C04340F3001717
:103D1000286840F010002860C4F8046326607F1C07
:103D200002E000BF00F090F8D4F800010028F9D0BC
:103D30001FB9286820F010002860084805686660F0
:103D4000C4F80863C4F800810C2000F020FE284667
:103D5000BDE8F08100C0004010ED00E008C5004063
:103D600010B5024605200C4904E000BF01EBC0037A
:103D70001B7933B1401EC0B2F8D248216920FFF749
:103D80003DFF41F8302001EBC00100224A718A71E9
:103D900001220A7110BD00003412002010B5052860
:103DA00001D3582106E00A4901EBC000017901293D
:103DB00003D059216920FFF721FF41798279491CFD
:103DC000C9B28A4200D04171BDE81040FFF774BF0C
:103DD0003412002070B505250E4E0F4C16E02178E8
:103DE00006EBC1000279012A08D1427983799A420F
:103DF00004D04279827156F8310080472078401C07
:103E0000C0B22070052801D3002020706D1EEDB2D5
:103E1000E5D270BD341200206D00002000B500F026
:103E2000E5FD40B900F0ECFD28B900F000FE10B946
:103E300000F007FE08B1024800BD024800BD0000C6
:103E40000C05004000E7014010B500F0FAFD30B36A
:103E5000EFF31080C8B1002172B6124802680368FF
:103E6000C2F3001243F0100303604FF0E023D3F8D5
:103E70000042D3F804321C4300D040BF20BF00BF33
:103E800000BF00BF00BF12B105E00121E4E70268F6
:103E900022F010020260002900D062B610BD20BFDF
:103EA00010BD000010ED00E001490968896808476D
:103EB0005800002001490968096908475800002096
:103EC000014800684068004758000020014909681F
:103ED0000968084758000020374C00002F4C0000AC
:103EE000234C0000334C00002B4C0000094810B557
:103EF0008178042908D010290AD0202908D040F25E
:103F0000BF116B20FFF77AFE1021817024F016FF9D
:103F100010BD00005C0000200B4810B5017831B1E5
:103F2000EFF3108472B68178102905D008E040F2D2
:103F30000D316B20FFF762FE08218170FEF752FC05
:103F4000002C00D162B610BD5C00002070B5124C90
:103F5000207858B1EFF3108572B6607948B1022825
:103F600009D040F2D6216B20FFF748FE40F2C32172
:103F7000F9E7012003E0A1780020042901D0607155
:103F800002E0607124F0CEFE05B962B6E078BDE8CB
:103F90007040FFF703BF00005C0000200E4810B522
:103FA000017859B1EFF3108172B642794AB1012A12
:103FB00009D040F2FE216B20FFF720FE40F2EE21F7
:103FC000F9E7022200E00022427101B962B6C0782E
:103FD000BDE81040FFF7E2BE5C00002010B5134CB6
:103FE000207810B140F27F211DE000206070012098
:103FF000A0700F484FF4C851016005210181B7211D
:1040000041810C4941600C48FFF7AAFEE070002195
:104010000A48FEF7BFFB2071202802D00120207043
:1040200010BD40F28E216B20FFF7E8FD5C00002000
:104030006C120020FF1FA107694100009D40000095
:1040400012488178042901D0002070478079B8B1E6
:104050000F48D0F804050E49091DD1F84015401C41
:10406000081A0002C11700EB11600012002800DCE2
:1040700000200849A0FB0110420442EAD1307047F9
:10408000054801684089081A704700005C0000205C
:1040900000B0004040420F006C12002070B52F4E5F
:1040A000D6F8040500252E4C082931D2DFE801F0AE
:1040B00030043A3A211C4B400121022000F0FCF868
:1040C000607858B10420A07026480068A060A571EF
:1040D000607902283ED024F025FE3BE02020A0702D
:1040E000BDE87040FEF77EBB40F207216B20FFF772
:1040F00085FD607800280BD0A078042809D04FF007
:10410000E0210220C1F88001BFF34F8FBFF36F8F12
:1041100070BD00F071F810B1D6F84401B0B913F0D9
:1041200089FC70BD0121022004E00120A07070BD57
:104130000121282000F0C0F860780028F5D0BDE803
:10414000704000F095B800F057F818B1BDE8704025
:10415000FFF7CCBEBDE8704000F056B800B000409C
:104160005C0000206C12002070B5EFF3108472B672
:10417000204D002069796871C1B3012906D0022958
:1041800018D084F310884FF4D07128E084F310889D
:10419000687810B140F24D1121E00021142000F0A8
:1041A0008BF801206870A878012821D1BDE8704003
:1041B00000F05EB8697849B16870A878082815D011
:1041C00007DC022812D0042807D10BE04FF4AF71AE
:1041D00005E0102806D0202808D04FF4BD716B20D0
:1041E000FFF70CFD2020A870FEF7FCFA84F310887E
:1041F00070BD00005C00002002488079012800D0DA
:10420000002070475C00002070B50420FDF73CFFE3
:10421000154D2968814200D8084606460421FDF75D
:1042200071FE124C012130B1012818D04FF4A07159
:104230006B20FFF7E3FC2868B042A06806D1FEF7C8
:10424000B3FB2868A1680844A06070BD3044A0603A
:10425000A1716989401ABDE87040FEF7A5BBA17144
:104260006889A168081AF6E76C1200205C0000203B
:104270000F4810B5002101600122816002700181A8
:104280000421817200F110010A6842604968C1602E
:1042900008480221817006490079FEF78BF8002852
:1042A00004D14FF482716B20FFF7A8FC10BD000011
:1042B0005C1200205C0000200B4A10B5927812B10D
:1042C000531E1A4201D0DE2109E021B102409006BE
:1042D00008D1E32103E08243900603D1E7216B205C
:1042E000FFF78CFC10BD00005C000020974C000024
:1042F000B34C0000A14C0000AD4C00009B4C0000F2
:10430000954C0000934C0000B94C0000A74C0000F5
:104310008D4C0000854C0000894C00007F4C000053
:1043200001480068006B004768000020014A1268DD
:10433000526A104768000020014909684969084726
:1043400068000020014800680068004768000020FD
:10435000014800680069004768000020014A1268AF
:10436000926810476800002001480068C068004754
:1043700068000020014A1268526810476800002057
:1043800001480078704700006E00002010F8012BF3
:1043900011F8013B012A28BF9A42F7D0D01A704782
:1043A000034613F8012B002AFBD1181A0138704775
:1043B00070472DE9F0410D0004464FF002064FF022
:1043C000010708D02878D0B1012807D0022814D0DE
:1043D00003283BD116E080F820700EE06868C828FA
:1043E00003D30421FDF78EFD08B1002607E0204627
:1043F000696800F02AF9012601E0FCF7B3FD3046B8
:10440000BDE8F08120780028F7D16868FCF77CFDD2
:10441000E0B16968087828B1A078052807D040F293
:10442000791110E0204600F018F96770E5E72046A2
:1044300000F02BF9E07804F10C0100F00AF80028F4
:10444000DBD140F27B116A20FFF7D8FB84F82070A3
:10445000D3E7FDF7AFBF2DE9F0410D4604000BD0C7
:10446000267900270220092D7BD2DFE805F008100D
:104470002E2E5B647C97860040F29311E2E0A078D8
:1044800004286FD00328FCD04FF4CF71DAE0A07875
:10449000042804D0032802D04FF4D171D2E00520C3
:1044A000A07084F82070207880BB0021204600F0A6
:1044B000CCF8207B012804D0A069E0610021A2682B
:1044C00041E0E078FDF75CFEF7E7A178042904D02D
:1044D000032902D04FF4E071B4E0227822B12146E2
:1044E000304600F0EEF8A4E0042900D00120A070CE
:1044F000A268022D0BD006213046904700286BD0D1
:104500000078002868D04FF4ED719BE031E0052180
:1045100030469047002871D0007800286ED040F2D5
:10452000D5118FE0A078052802D040F2E11189E092
:104530000221A26807E0A078052802D040F2E71126
:1045400080E0A26801213046904701462046FFF7EF
:1045500030FF02286DD0F0B3012864D040F227214B
:1045600070E05DE067E0A078052802D040F2ED1130
:1045700068E0BDE8F041FCF7F5BCA078052802D062
:104580004FF4F9715EE0A2680A2130469047014677
:104590002046FFF70EFF40F2F51153E0A178052900
:1045A00006D062780AB1032902D040F2F91149E03D
:1045B000217829B121463046BDE8F04100F081B8AC
:1045C00094F8201089B184F82070A070A2680821A6
:1045D0003046904701E029E02BE000280ED000781B
:1045E00000280BD040F205212CE0617859B1E07829
:1045F00004F10C01FFF72DFF10B16770BDE8F081E9
:1046000040F209211EE0A070A268072130469047C1
:104610000028F3D000780028F0D040F2112111E0FA
:1046200040F216210EE00421A2688CE70321A26863
:1046300089E7002DE2D100F0EFF800680028DDD016
:1046400040F231216A20FFF7D9FA0246037B006964
:10465000084410615938FEF7A7B9012202730022FD
:10466000C2750A796AB1002282824A795AB104225B
:1046700082758A686A320261C9688161032181702A
:1046800070472B22F0E70322F2E710B50446002022
:104690002073E075087980B10020A082487970B15C
:1046A0000420A075C8686A3020618968E069FDF758
:1046B00035FDA0610420A07010BD2B20EDE7032084
:1046C000EFE770B505460C46C878FEF741F878B1BB
:1046D000204600F010F8A2680921284690470028DB
:1046E00008D00078002805D0DB216A20FFF786FA81
:1046F000D721FAE770BD00218170017041707047C9
:1047000070B5FCF789FC0546002406E02046FCF75E
:1047100089FCFFF7F0FF641CE4B2AC42F6D370BD35
:104720002DE9F0410D46FCF77DFC040007D0A07890
:104730006FF02206012806D0022810D103E06FF0A6
:104740000100BDE8F0816FF0150755B12846FCF770
:10475000DBFB30B1287830B1A078022808D0304691
:10476000EFE73846EDE729462046FFF776FF03E0FE
:1047700029462046FFF789FFE07804F10C01FFF796
:1047800068FE08B10020DCE74FF42B716A20FFF7C8
:1047900035FA10B50446FCF745FC010004D0087852
:1047A0006FF0220268B902E06FF0010010BD887856
:1047B00038B1022807D0012805D001200870002058
:1047C00010BD104610BD2046FFF77BFFF7E72DE92F
:1047D000F0410E460746FCF71FFC054600240AE0A0
:1047E0002046FCF71FFC807818B14FF0FF30BDE881
:1047F000F081641CE4B2AC42F2D3082E02D96FF00F
:104800001500F4E717B13146384601E000210846AB
:10481000BDE8F041FCF7ECBB0020FEF71FBE410AEB
:1048200043F609525143C0F3080010FB02F000F5B3
:10483000807001EB50207047FDF7B6BC002809DB03
:1048400000F01F02012191404009800000F1E020AA
:10485000C0F88012704700280DDB00F01F02012114
:1048600091404009800000F1E020C0F88011BFF3C2
:104870004F8FBFF36F8F704770B50246002000293D
:104880001DD0A2FB0101400A40EAC150490A401C68
:1048900041F1000140F2A172831841F100015B1C5B
:1048A00041F100040021D3F1FF33A14103D2712172
:1048B0006D20FFF7A3F900F5F460B0FBF2F070BDD6
:1048C0004058002800D001207047D0F80C24D0F8C0
:1048D0000C0402F00102C00303D58A4201D1012079
:1048E00070470020704710B501218807FFF730F9A5
:1048F000002800D0012010BD4FF080400121016050
:1049000070474FF08041D1F81824D1F8181402F004
:104910000302C90303D5824201D101207047002060
:10492000704710B500214FF08040FFF711F90028C3
:1049300000D0012010BD002809DB00F01F0201217A
:1049400091404009800000F1E020C0F880127047DB
:1049500000280DDB00F01F0201219140400980007A
:1049600000F1E020C0F88011BFF34F8FBFF36F8FCD
:10497000704700100200FA00000023576224233120
:104980008F5774EED12F88C09445F7A2F9360028CE
:1049900009DB00F01F02012191404009800000F175
:1049A000E020C0F880127047EFF3108172B60278F1
:1049B000012A01D0012200E000220123037001B985
:1049C00062B60AB1002070476FF0220070470021E4
:1049D000017008467047EFF3108172B60022027032
:1049E00001B962B600207047FFF7F4B94FF080506C
:1049F000D0F830010F2801D0002070470120704707
:104A00004FF08050D0F830010A2801D000207047C4
:104A10000120704700B5FFF7F3FF20B14FF0805041
:104A2000D0F8340108B1002000BD012000BD4FF0D6
:104A30008050D0F830010E2801D0002070470120AE
:104A400070474FF08050D0F83001062803D0401C4A
:104A500001D000207047012070474FF08050D0F8FF
:104A60003001082801D00020704701207047F0B4C1
:104A700080EA010C03461CF0030F3CD113F0030F36
:104A80000BD0002A04BFF0BC704711F801CB03F82B
:104A900001CB521E13F0030FF3D1032A4FD9B2F109
:104AA000004F4CD2C2F1000C4FEAEC740CEB947C3A
:104AB0004FEAAC0CCCF1000CBCF1000F1BDD0D1F5C
:104AC0001C1F1CF0010F03D055F8046F44F8046F4D
:104AD0005FEA6C0607D06F68676055F8087F44F896
:104AE000087F761EF7D101EB8C0103EB8C03CCF130
:104AF000000C02EB8C02002A04BFF0BC7047B2F13C
:104B0000004F26D2002ADCBFF0BC7047491E5B1E56
:104B100012F0010F03D011F801CF03F801CF5210AA
:104B200004BFF0BC704791F801C083F801C011F8D0
:104B300002CF03F802CF521EF5D1F0BC7047042A11
:104B4000D9D351F804CB121F43F804CB042AF8D26E
:104B5000D1E711F801CB03F801CB521EF9D1F0BC1B
:104B6000704770B4034601F0FF0C10F0030F09D03A
:104B7000002A04BF70BC704703F801CB521E13F02B
:104B8000030FF5D1C9B241EA012141EA0145032AE7
:104B900039D9B2F1004F36D25142CC1701EB9471A2
:104BA00089104E42002E11DD191F16F0010F18BF9B
:104BB00041F8045F741004D04D6041F8085F641E32
:104BC000FAD1714203EB860302EB8102002A04BF93
:104BD00070BC7047B2F1004F1DD2002ADCBF70BC20
:104BE0007047591E12F0010F18BF01F801CF521083
:104BF00004BF70BC704781F801C001F802CF521E9B
:104C0000F9D170BC7047042AE0D3121F43F8045B4B
:104C1000042AFAD2DAE703F801CB521EFBD170BCAA
:104C20007047072101700020704700207047002066
:104C300070470020704708B1002070476FF01500E2
:104C4000704700B50346FFF7FBF9984201D90120F0
:104C500000BD002000BD08B50B380A460F2801D959
:104C6000372106E0C1B26B460420FCF733F918B1D6
:104C700040216420FEF7C2FF9DF9000008BD4FF0FF
:104C8000FF30704700207047002070474FF0FF3022
:104C9000704770477047002070474FF0FF307047F3
:104CA0004FF0FF3070470021017070474FF0FF3028
:104CB00070474FF0FF307047002070470000000041
:104CC00084B0F8B52DED028B08AC84E80F00504E8F
:104CD000344608AD0FCD0FC495E8030084E8030007
:104CE000B6F9060007EE900AF8EEE77A17EE900A9A
:104CF000FBF7BAFB44A3D3E90023FBF757FAFBF712
:104D00001DFE08EE100A338AA62B01D9A622328294
:104D100000253F4B1B8AAB4270D93D4CB4F90C3097
:104D200006EE903AF8EEE66A07EE905AB8EE677A29
:104D3000B4F90E3007EE903AF8EEE77A67EE277A8C
:104D400076EEA77A17EE900AFBF78EFB2EA3D3E937
:104D50000023FBF72BFAFBF7F1FD08EE900AD4EDE8
:104D6000007AF8EE677A17EE900AFBF77DFB0646AD
:104D70000F46B4F9043007EE903AF8EEE77AC7EE42
:104D8000A86A87EE887A76EEC77A17EE900AFBF764
:104D90006BFB41EC100B00F03FF853EC102B30464E
:104DA0003946FBF7B9FBFBF7C9FD06EE900AA38A6B
:104DB00007EE903AF8EE677A27EEA67A638A07EE56
:104DC000903AF8EE677A67EE277A77EEA77A77EE71
:104DD000A67A94ED027AB8EE477A77EE877A37EEC4
:104DE000267A37EE077AC7EE876AFCEEE66A094B49
:104DF00016EE902A23F8152001358AE7BDEC028BC8
:104E0000BDE8F84004B07047666666666612714099
:104E1000143E00202C3E0020F0B52DED048BB0EEAA
:104E2000408AF0EE608A3A4C8BB000F079F894F941
:104E30000030B0EE409AF0EE609A013317D0B0EE39
:104E4000480AF0EE680A3DF01BFC80B12CA3D3E9C0
:104E5000002351EC180BFCF70BF80546A0BB2AA366
:104E6000D3E9002351EC180BFBF7E4FF38B9B0EE9F
:104E7000490AF0EE690A0BB0BDEC048BF0BD94F961
:104E80000030244A0895002600270421022B8DEDCE
:104E9000048B8DED028BCDE90667CDE900120ED0B3
:104EA00068463DF0F9FB50B1089B0BBB9DED069B9E
:104EB000DDE719490020022BCDE90601F0D13FF0D2
:104EC00038FD22230360EFE7124A94F90030019283
:104ED000032100228DED048B8DED028B0091089251
:104EE000002BE6D10D4B4FF06042CDE90623D7E70A
:104EF0003FF01FFD089B0360D8E700BFAFF30080C1
:104F0000EF39FAFE422E864051302DD5104987C028
:104F100078080020E45005000000F07FFFFFEF4715
:104F20002DE9F04F55EC104B2DED028BDC4925F0AF
:104F300000428A4283B04FEAD57613D9D9498A42D2
:104F40002FD9C5F31303234310EE102A40F06281DA
:104F5000002E00F0F9809FEDBA0B03B0BDEC028B80
:104F6000BDE8F08FD04B9A425BD8D04B9A4200F20A
:104F7000F080B5A3D3E9002310EE100A2946FBF711
:104F800015F9CB4B0022FBF773FF002800F0E180FE
:104F9000C74B204629460022FBF708F941EC100BCD
:104FA000D2E0ABA3D3E9002310EE100A2946FBF7A9
:104FB0005FFF002840F03A81A7A3D3E900232046F1
:104FC0002946FBF737FF0028C5D1BA49A4A3D3E986
:104FD000002301EBC60620462946FBF79DFAD6E9D9
:104FE0000023FBF7E3F8FBF74DFF0190FBF72AFAEC
:104FF0009DA3D3E9002306460F46FBF78DFA024630
:105000000B4620462946FBF7CFF899A3D3E90023A6
:105010008046894630463946FBF77EFA41EC180B4C
:105020001CE0A54B9A42D0D8A44B03EBC603D3E9AE
:10503000002310EE100A2946FBF7B6F8A04BF20049
:10504000134493ED007BC6F1010AAAEB06038046E8
:1050500089460193B0EE478AF0EE678A53EC182B2D
:1050600040464946FBF7A0F802460B4682468B466F
:10507000FBF752FA80A3D3E9002304460D46FBF761
:105080004BFA7FA3D3E90023FBF78EF822462B4689
:10509000FBF742FA7CA3D3E90023FBF787F822460B
:1050A0002B46FBF739FA7AA3D3E90023FBF77CF808
:1050B00022462B46FBF730FA77A3D3E90023FBF710
:1050C00075F822462B46FBF727FA02460B46504658
:1050D0005946FBF769F8019B0F46064654465D4664
:1050E00001463A46002B6DD032463B465046594663
:1050F000FBF712FA324604463B460D4600204FF0BD
:105100008041FBF751F802460B4620462946FBF743
:105110002DFB02460B4651EC180BFBF745F84246B7
:105120004B46FBF741F80B46024661490020FBF76E
:105130003BF8019C6FF47F739C42C0F2C38002462F
:1051400001EB045343EC102B03B0BDEC028BBDE824
:10515000F08F22462B4620462946FBF7DDF946A371
:10516000D3E9002306460F46FBF7D6F944A3D3E95B
:105170000023FBF719F832463B46FBF7CDF942A373
:10518000D3E90023FBF712F832463B46FBF7C4F99C
:105190003FA3D3E90023FBF707F832463B46FBF772
:1051A000BBF93DA3D3E90023FBF700F832463B46A9
:1051B000FBF7B2F902460B4620462946FAF7F4FF00
:1051C0000A460146914688460A464B4620462946ED
:1051D000FBF7A2F9002206460F464FF080434046F7
:1051E0004946FAF7E1FF02460B4630463946FBF7DF
:1051F000BDFA22462B46FAF7D7FF02460B4600209F
:105200002B49FAF7D1FF41EC100B03B0BDEC028B38
:10521000BDE8F08F2B4620462946FAF7C7FF41EC40
:10522000100B03B0BDEC028BBDE8F08F06A3D3E9F1
:10523000002310461946FBF76FF941EC100B83E78A
:1052400000000000000000009C7500883CE4377EF0
:10525000EF39FAFE422E864051302DD5104987C0D5
:10526000FE822B654715F73F0000E0FE422EE63F29
:10527000763C7935EF39EA3DD0A4BE726937663E97
:10528000F16BD2C541BDBB3E2CDE25AF6A56113F46
:1052900093BDBE166CC1663F3E5555555555C53F2D
:1052A000412E8640FFFFEF7F422ED63FFFFF2F3E6D
:1052B0000000F03FF8E80400B1A2F03F08E9040064
:1052C00018E90400019B03F57A7A01EB0A531946A9
:1052D00000224FF0B873FBF71FF941EC100B03B03D
:1052E000BDEC028BBDE8F08F134640F26262934240
:1052F0000CD810B5CC18944202D9C3F5CC61023158
:105300000A460349194448F04EFF10BD704700BFDC
:1053100004EA0400B2F5807F41D82DE9F04182B063
:1053200007460E4615468B18B3F5807F01D9C2F5A6
:1053300080760A226946C92048F00FFF6846FFF7C9
:105340002FF880461648FFF72BF800231BE0241A9D
:1053500008F10102A24213DD012C08D0012C09DD65
:10536000013C02AA144414F8082CFA540AE02E2234
:10537000FA5407E002AA144414F8082CFA5401E085
:105380002022FA5401339E4206D95C19A042DED98C
:10539000034A125DFA54F5E702B0BDE8F0817047A8
:1053A000F0E90400B2F5807F1BD8F8B507460E4639
:1053B00015468B18B3F5807F01D9C2F58076094870
:1053C000FEF7EEFF002302E02022FA5401339E4252
:1053D00006D95C19A042F7D9024A125DFA54F5E7E2
:1053E000F8BD70474CE90400F0B4174C84FB00543E
:1053F0000444C617C6EB64142746C4EB8414041B8C
:10540000124D85FB07C53D444FEAE77CCCEBE51523
:10541000C5EB05257D1B0E4F87FB00C7C6EB273666
:105420000C4FB8420ADC0134B01020F03F0040B20B
:1054300004430C7016701D70F0BC7047FF2018708C
:1054400010700870F8E700BF832008828180808098
:1054500097554541FF03FB0070B505460C464FF4D8
:1054600000720021204648F0E2FEEB23237058230F
:1054700063709023A370354B03CBC4F80300C4F8CA
:1054800007100023E3720222227308206073A273C4
:10549000E37322746374A374E3742375F821617554
:1054A000A375E3753F21217663764FF0FF31A17636
:1054B000E3763E2121776377A377E377A9682E69A6
:1054C000891B2162E969AD69491B616284F8283052
:1054D00084F8293084F82A3084F82B3084F82C2082
:1054E00084F82D3084F82E3084F82F30012284F88F
:1054F000302084F8313084F8323084F8333080231F
:1055000084F84030292384F84230942384F84330CF
:105510000E2384F844300D2384F8453084F8460087
:105520000B4B07CBC4F84700C4F84B10C4F84F200E
:10553000084B03CBC4F85200C4F85610552384F826
:10554000FE31AA2384F8FF3170BD00BF68F004006B
:1055500074F0040084F00400F8B507460D46D40149
:105560000BD10B46204A43F8082B4FF0FF324A601C
:1055700002341D467E26FA6A0DE08026FBE7FA6AB1
:10558000012345F8043B013E1C4404E0631C2B60EE
:105590000435013E013426B3136BA34202D8936B4A
:1055A000A34206D2214638463DF0DBFC02460028E5
:1055B000E5D0137933B1536BA342E7D16FF0704359
:1055C0002B60E5E7536BA34204D0A34206D200232D
:1055D0002B60DDE76FF070432B60D9E7631C2B6015
:1055E000D6E7FA62F8BD00BFF8FFFF0FF0B583B051
:1055F00006460D4617461C464FF400720021284609
:1056000048F015FE3CBB3B6CC3B105F120060024FD
:10561000019400943B6B11222D4928463DF0FAFC81
:105620003B6C1B6B0194009411222A493046403593
:105630003DF0F0FC4FF4E0767C6C2EE005F12004A8
:10564000019300930822F16828463DF0E3FC2546CB
:105650004FF4F076F0E723013A6C1AB102229B1A5C
:105660007C6C03E00122FAE7A46C013B002B29DDEE
:10567000002CF9D14FF400760FE005F1200704F17A
:105680001C02236B21682069019000922122284688
:105690003DF0C0FC3D46A46C203EB4B11F2E14D991
:1056A0002379002BE9D005F1200704F11C02236BBC
:1056B0002168002001900092112228463DF0AAFCAA
:1056C0003D46E8E74FF40076E7E703B0F0BD00BFE2
:1056D00090F0040094F00400F8B507460C46D30897
:1056E0009E1C02F00705C26A136BB34202D8936B8B
:1056F000B34206D2314638463DF033FC024688B10B
:10570000F8621379B3B9976AD7B1136BF31A05EB43
:10571000C305D168936901EB45224FF4007120461F
:10572000B847F8BD00237F2BFBDC094A44F823204F
:105730000133F8E72B4621463846FFF757FFF0E7DD
:105740004FF400720021204648F071FDE9E700BFE8
:10575000DEADBEEF08B5024802F0BCFC08BD00BFDC
:10576000CC02002008B502483DF0CFFC002008BD67
:105770008019002010B588B04CF25033029344F6E3
:10578000206304930123ADF81C304FF48052ADF830
:105790001A2040F66E72ADF80C201922ADF80E20DA
:1057A0004FF6F672ADF81420ADF816308823ADF838
:1057B000183008AB13E903008DE8030002AB0FCBF0
:1057C000FFF77EFA1248134B186045F0EEFE08B161
:1057D000002418E0492110483EF01CFA15E00F495A
:1057E0000B79022262F304030B7103234B71094B03
:1057F000186883681B689847094A536843F0040394
:1058000053600134E4B2002CE9D008B010BD00BFF1
:1058100074E60400C4260020B4F00400E002002076
:10582000E802002086B000230BE0604A32F9101035
:1058300006AA02EB430222F8141C01331BB201300A
:1058400000B2082BF1DDBDF90630BDF90820934206
:1058500003DDADF80620ADF80830BDF90C30BDF918
:105860000E20934203DDADF80C20ADF80E30BDF9EB
:105870001230BDF91420934203DDADF81220ADF8CB
:105880001430BDF90430BDF90620934203DDADF8B4
:105890000420ADF80630BDF90A30BDF90C20934262
:1058A00003DDADF80A20ADF80C30BDF91030BDF9BC
:1058B0001220934203DDADF81020ADF81230BDF98F
:1058C0000630BDF90820934203DDADF80620ADF89F
:1058D0000830BDF90C30BDF90E20934203DDADF860
:1058E0000C20ADF80E30BDF91230BDF914209342F2
:1058F00003DDADF81220ADF81430BDF90430BDF968
:105900000A20934201DDADF80A30BDF90E20BDF941
:1059100014309A4201DDADF80E30BDF90C30BDF9FE
:105920001220934203DDADF80C20ADF81230BDF922
:105930000A30BDF91020934201DDADF81030BDF9F9
:105940000630BDF90C20934201DDADF80C30BDF9F5
:105950000820BDF90E309A4201DDADF80830BDF9DE
:105960000C20BDF912309A4201DDADF80C30BDF9C2
:105970000C30BDF90820934203DDADF80C20ADF8E2
:105980000830BDF91030BDF90C20934201DDADF8AF
:105990000C30BDF90C20BDF908309A4201DDADF89C
:1059A0000C30BDF90C0006B0704700BFC8260020BF
:1059B00010B582B0FFF7DEFE2C4B186883685B6879
:1059C0002B4998470446C0B10246492129483EF078
:1059D00021F902B010BD20B2FFF724FF02AB03EBA8
:1059E000440323F8040C80B200F076FA80B2224B14
:1059F00023F81400214B58800134002CEBDD4FF4C8
:105A00000040002121F046FA0AE0024649211948E7
:105A10003EF000F9DDE74FF40040002121F03AFAB2
:105A2000124B186883685B68114998470446002840
:105A3000EBD1002CEFDC20B2FFF7F4FE02AB03EB5E
:105A4000440232F9043C03EB4303184440F38F0053
:105A500022F8040C80B200F03FFA80B2064B23F823
:105A60001400064B58800134E3E700BFC426002031
:105A7000E8020020D0F00400C0260020100400201E
:105A8000014B1880704700BFBE6D002010B58CB070
:105A90002D4BB3F8503013F0010F1DD00AA80DF0B4
:105AA00065FE002322E003F14601274A12F8111097
:105AB0000AAAD1540133072BF5DD0AA833F094FA72
:105AC0000AAA14210DEB010040F073FF05AA492139
:105AD0001E483EF09FF8E1E70023ECE703F13C01AC
